{
  "contractName": "Anft",
  "abi": [
    {
      "inputs": [
        {
          "internalType": "string",
          "name": "baseURI",
          "type": "string"
        }
      ],
      "stateMutability": "nonpayable",
      "type": "constructor"
    },
    {
      "anonymous": false,
      "inputs": [
        {
          "indexed": true,
          "internalType": "address",
          "name": "owner",
          "type": "address"
        },
        {
          "indexed": true,
          "internalType": "address",
          "name": "approved",
          "type": "address"
        },
        {
          "indexed": true,
          "internalType": "uint256",
          "name": "tokenId",
          "type": "uint256"
        }
      ],
      "name": "Approval",
      "type": "event"
    },
    {
      "anonymous": false,
      "inputs": [
        {
          "indexed": true,
          "internalType": "address",
          "name": "owner",
          "type": "address"
        },
        {
          "indexed": true,
          "internalType": "address",
          "name": "operator",
          "type": "address"
        },
        {
          "indexed": false,
          "internalType": "bool",
          "name": "approved",
          "type": "bool"
        }
      ],
      "name": "ApprovalForAll",
      "type": "event"
    },
    {
      "anonymous": false,
      "inputs": [
        {
          "indexed": true,
          "internalType": "address",
          "name": "previousOwner",
          "type": "address"
        },
        {
          "indexed": true,
          "internalType": "address",
          "name": "newOwner",
          "type": "address"
        }
      ],
      "name": "OwnershipTransferred",
      "type": "event"
    },
    {
      "anonymous": false,
      "inputs": [
        {
          "indexed": true,
          "internalType": "address",
          "name": "from",
          "type": "address"
        },
        {
          "indexed": true,
          "internalType": "address",
          "name": "to",
          "type": "address"
        },
        {
          "indexed": true,
          "internalType": "uint256",
          "name": "tokenId",
          "type": "uint256"
        }
      ],
      "name": "Transfer",
      "type": "event"
    },
    {
      "inputs": [],
      "name": "MAX_ANFT",
      "outputs": [
        {
          "internalType": "uint256",
          "name": "",
          "type": "uint256"
        }
      ],
      "stateMutability": "view",
      "type": "function",
      "constant": true
    },
    {
      "inputs": [],
      "name": "ORGINAL_FILE_HASH",
      "outputs": [
        {
          "internalType": "string",
          "name": "",
          "type": "string"
        }
      ],
      "stateMutability": "view",
      "type": "function",
      "constant": true
    },
    {
      "inputs": [],
      "name": "PROVENANCE_HASH",
      "outputs": [
        {
          "internalType": "string",
          "name": "",
          "type": "string"
        }
      ],
      "stateMutability": "view",
      "type": "function",
      "constant": true
    },
    {
      "inputs": [],
      "name": "Reveal_Hash",
      "outputs": [
        {
          "internalType": "string",
          "name": "",
          "type": "string"
        }
      ],
      "stateMutability": "view",
      "type": "function",
      "constant": true
    },
    {
      "inputs": [
        {
          "internalType": "address",
          "name": "to",
          "type": "address"
        },
        {
          "internalType": "uint256",
          "name": "tokenId",
          "type": "uint256"
        }
      ],
      "name": "approve",
      "outputs": [],
      "stateMutability": "nonpayable",
      "type": "function"
    },
    {
      "inputs": [
        {
          "internalType": "address",
          "name": "owner",
          "type": "address"
        }
      ],
      "name": "balanceOf",
      "outputs": [
        {
          "internalType": "uint256",
          "name": "",
          "type": "uint256"
        }
      ],
      "stateMutability": "view",
      "type": "function",
      "constant": true
    },
    {
      "inputs": [],
      "name": "baseURI",
      "outputs": [
        {
          "internalType": "string",
          "name": "",
          "type": "string"
        }
      ],
      "stateMutability": "view",
      "type": "function",
      "constant": true
    },
    {
      "inputs": [
        {
          "internalType": "uint256",
          "name": "tokenId",
          "type": "uint256"
        }
      ],
      "name": "getApproved",
      "outputs": [
        {
          "internalType": "address",
          "name": "",
          "type": "address"
        }
      ],
      "stateMutability": "view",
      "type": "function",
      "constant": true
    },
    {
      "inputs": [],
      "name": "hasSaleStarted",
      "outputs": [
        {
          "internalType": "bool",
          "name": "",
          "type": "bool"
        }
      ],
      "stateMutability": "view",
      "type": "function",
      "constant": true
    },
    {
      "inputs": [
        {
          "internalType": "address",
          "name": "owner",
          "type": "address"
        },
        {
          "internalType": "address",
          "name": "operator",
          "type": "address"
        }
      ],
      "name": "isApprovedForAll",
      "outputs": [
        {
          "internalType": "bool",
          "name": "",
          "type": "bool"
        }
      ],
      "stateMutability": "view",
      "type": "function",
      "constant": true
    },
    {
      "inputs": [],
      "name": "name",
      "outputs": [
        {
          "internalType": "string",
          "name": "",
          "type": "string"
        }
      ],
      "stateMutability": "view",
      "type": "function",
      "constant": true
    },
    {
      "inputs": [],
      "name": "owner",
      "outputs": [
        {
          "internalType": "address",
          "name": "",
          "type": "address"
        }
      ],
      "stateMutability": "view",
      "type": "function",
      "constant": true
    },
    {
      "inputs": [
        {
          "internalType": "uint256",
          "name": "tokenId",
          "type": "uint256"
        }
      ],
      "name": "ownerOf",
      "outputs": [
        {
          "internalType": "address",
          "name": "",
          "type": "address"
        }
      ],
      "stateMutability": "view",
      "type": "function",
      "constant": true
    },
    {
      "inputs": [],
      "name": "renounceOwnership",
      "outputs": [],
      "stateMutability": "nonpayable",
      "type": "function"
    },
    {
      "inputs": [
        {
          "internalType": "address",
          "name": "from",
          "type": "address"
        },
        {
          "internalType": "address",
          "name": "to",
          "type": "address"
        },
        {
          "internalType": "uint256",
          "name": "tokenId",
          "type": "uint256"
        }
      ],
      "name": "safeTransferFrom",
      "outputs": [],
      "stateMutability": "nonpayable",
      "type": "function"
    },
    {
      "inputs": [
        {
          "internalType": "address",
          "name": "from",
          "type": "address"
        },
        {
          "internalType": "address",
          "name": "to",
          "type": "address"
        },
        {
          "internalType": "uint256",
          "name": "tokenId",
          "type": "uint256"
        },
        {
          "internalType": "bytes",
          "name": "_data",
          "type": "bytes"
        }
      ],
      "name": "safeTransferFrom",
      "outputs": [],
      "stateMutability": "nonpayable",
      "type": "function"
    },
    {
      "inputs": [
        {
          "internalType": "address",
          "name": "operator",
          "type": "address"
        },
        {
          "internalType": "bool",
          "name": "approved",
          "type": "bool"
        }
      ],
      "name": "setApprovalForAll",
      "outputs": [],
      "stateMutability": "nonpayable",
      "type": "function"
    },
    {
      "inputs": [
        {
          "internalType": "bytes4",
          "name": "interfaceId",
          "type": "bytes4"
        }
      ],
      "name": "supportsInterface",
      "outputs": [
        {
          "internalType": "bool",
          "name": "",
          "type": "bool"
        }
      ],
      "stateMutability": "view",
      "type": "function",
      "constant": true
    },
    {
      "inputs": [],
      "name": "symbol",
      "outputs": [
        {
          "internalType": "string",
          "name": "",
          "type": "string"
        }
      ],
      "stateMutability": "view",
      "type": "function",
      "constant": true
    },
    {
      "inputs": [
        {
          "internalType": "uint256",
          "name": "index",
          "type": "uint256"
        }
      ],
      "name": "tokenByIndex",
      "outputs": [
        {
          "internalType": "uint256",
          "name": "",
          "type": "uint256"
        }
      ],
      "stateMutability": "view",
      "type": "function",
      "constant": true
    },
    {
      "inputs": [
        {
          "internalType": "address",
          "name": "owner",
          "type": "address"
        },
        {
          "internalType": "uint256",
          "name": "index",
          "type": "uint256"
        }
      ],
      "name": "tokenOfOwnerByIndex",
      "outputs": [
        {
          "internalType": "uint256",
          "name": "",
          "type": "uint256"
        }
      ],
      "stateMutability": "view",
      "type": "function",
      "constant": true
    },
    {
      "inputs": [
        {
          "internalType": "uint256",
          "name": "tokenId",
          "type": "uint256"
        }
      ],
      "name": "tokenURI",
      "outputs": [
        {
          "internalType": "string",
          "name": "",
          "type": "string"
        }
      ],
      "stateMutability": "view",
      "type": "function",
      "constant": true
    },
    {
      "inputs": [],
      "name": "totalSupply",
      "outputs": [
        {
          "internalType": "uint256",
          "name": "",
          "type": "uint256"
        }
      ],
      "stateMutability": "view",
      "type": "function",
      "constant": true
    },
    {
      "inputs": [
        {
          "internalType": "address",
          "name": "from",
          "type": "address"
        },
        {
          "internalType": "address",
          "name": "to",
          "type": "address"
        },
        {
          "internalType": "uint256",
          "name": "tokenId",
          "type": "uint256"
        }
      ],
      "name": "transferFrom",
      "outputs": [],
      "stateMutability": "nonpayable",
      "type": "function"
    },
    {
      "inputs": [
        {
          "internalType": "address",
          "name": "newOwner",
          "type": "address"
        }
      ],
      "name": "transferOwnership",
      "outputs": [],
      "stateMutability": "nonpayable",
      "type": "function"
    },
    {
      "inputs": [
        {
          "internalType": "address",
          "name": "_owner",
          "type": "address"
        }
      ],
      "name": "tokensOfOwner",
      "outputs": [
        {
          "internalType": "uint256[]",
          "name": "",
          "type": "uint256[]"
        }
      ],
      "stateMutability": "view",
      "type": "function",
      "constant": true
    },
    {
      "inputs": [],
      "name": "calculatePrice",
      "outputs": [
        {
          "internalType": "uint256",
          "name": "",
          "type": "uint256"
        }
      ],
      "stateMutability": "view",
      "type": "function",
      "constant": true
    },
    {
      "inputs": [
        {
          "internalType": "uint256",
          "name": "numofANFT",
          "type": "uint256"
        }
      ],
      "name": "adoptANFT",
      "outputs": [],
      "stateMutability": "payable",
      "type": "function",
      "payable": true
    },
    {
      "inputs": [
        {
          "internalType": "string",
          "name": "_hash",
          "type": "string"
        }
      ],
      "name": "setProvenanceHash",
      "outputs": [],
      "stateMutability": "nonpayable",
      "type": "function"
    },
    {
      "inputs": [],
      "name": "Reveal",
      "outputs": [],
      "stateMutability": "nonpayable",
      "type": "function"
    },
    {
      "inputs": [
        {
          "internalType": "string",
          "name": "hash",
          "type": "string"
        }
      ],
      "name": "setReveal",
      "outputs": [],
      "stateMutability": "nonpayable",
      "type": "function"
    },
    {
      "inputs": [
        {
          "internalType": "string",
          "name": "baseURI",
          "type": "string"
        }
      ],
      "name": "setBaseURI",
      "outputs": [],
      "stateMutability": "nonpayable",
      "type": "function"
    },
    {
      "inputs": [],
      "name": "startSale",
      "outputs": [],
      "stateMutability": "nonpayable",
      "type": "function"
    },
    {
      "inputs": [],
      "name": "stopSale",
      "outputs": [],
      "stateMutability": "nonpayable",
      "type": "function"
    },
    {
      "inputs": [],
      "name": "withdrawAll",
      "outputs": [],
      "stateMutability": "payable",
      "type": "function",
      "payable": true
    },
    {
      "inputs": [
        {
          "internalType": "uint256",
          "name": "amount",
          "type": "uint256"
        }
      ],
      "name": "withdrawAmt",
      "outputs": [],
      "stateMutability": "payable",
      "type": "function",
      "payable": true
    }
  ],
  "bytecode": "0x60806040526000600a60146101000a81548160ff02191690831515021790555060405180606001604052806029815260200162004c1560299139600b90805190602001906200005092919062000589565b5060405180602001604052806000815250600c90805190602001906200007892919062000589565b5060405180602001604052806000815250600d9080519060200190620000a092919062000589565b50348015620000ae57600080fd5b5060405162004c3e38038062004c3e83398181016040526020811015620000d457600080fd5b8101908080516040519392919084640100000000821115620000f557600080fd5b838201915060208201858111156200010c57600080fd5b82518660018202830111640100000000821117156200012a57600080fd5b8083526020830192505050908051906020019080838360005b838110156200016057808201518184015260208101905062000143565b50505050905090810190601f1680156200018e5780820380516001836020036101000a031916815260200191505b506040525050506040518060400160405280600481526020017f416e6674000000000000000000000000000000000000000000000000000000008152506040518060400160405280600381526020017f414d550000000000000000000000000000000000000000000000000000000000815250620002196301ffc9a760e01b6200035e60201b60201c565b81600690805190602001906200023192919062000589565b5080600790805190602001906200024a92919062000589565b50620002636380ac58cd60e01b6200035e60201b60201c565b6200027b635b5e139f60e01b6200035e60201b60201c565b6200029363780e9d6360e01b6200035e60201b60201c565b50506000620002a76200046760201b60201c565b905080600a60006101000a81548173ffffffffffffffffffffffffffffffffffffffff021916908373ffffffffffffffffffffffffffffffffffffffff1602179055508073ffffffffffffffffffffffffffffffffffffffff16600073ffffffffffffffffffffffffffffffffffffffff167f8be0079c531659141344cd1fd0a4f28419497f9722a3daafe3b4186f6b6457e060405160405180910390a35062000357816200046f60201b60201c565b506200062f565b63ffffffff60e01b817bffffffffffffffffffffffffffffffffffffffffffffffffffffffff19161415620003fb576040517f08c379a000000000000000000000000000000000000000000000000000000000815260040180806020018281038252601c8152602001807f4552433136353a20696e76616c696420696e746572666163652069640000000081525060200191505060405180910390fd5b6001600080837bffffffffffffffffffffffffffffffffffffffffffffffffffffffff19167bffffffffffffffffffffffffffffffffffffffffffffffffffffffff1916815260200190815260200160002060006101000a81548160ff02191690831515021790555050565b600033905090565b6200047f6200046760201b60201c565b73ffffffffffffffffffffffffffffffffffffffff16620004a56200054360201b60201c565b73ffffffffffffffffffffffffffffffffffffffff16146200052f576040517f08c379a00000000000000000000000000000000000000000000000000000000081526004018080602001828103825260208152602001807f4f776e61626c653a2063616c6c6572206973206e6f7420746865206f776e657281525060200191505060405180910390fd5b62000540816200056d60201b60201c565b50565b6000600a60009054906101000a900473ffffffffffffffffffffffffffffffffffffffff16905090565b80600990805190602001906200058592919062000589565b5050565b828054600181600116156101000203166002900490600052602060002090601f016020900481019282601f10620005cc57805160ff1916838001178555620005fd565b82800160010185558215620005fd579182015b82811115620005fc578251825591602001919060010190620005df565b5b5090506200060c919062000610565b5090565b5b808211156200062b57600081600090555060010162000611565b5090565b6145d6806200063f6000396000f3fe60806040526004361061020f5760003560e01c8063715018a611610118578063b88d4fde116100a0578063d348b4091161006f578063d348b40914610f22578063e36b0b3714610f4d578063e985e9c514610f64578063f2fde38b14610feb578063ff1b65561461103c5761020f565b8063b88d4fde14610c9e578063c87b56dd14610db0578063d0a93e7914610e64578063d266ad2f14610ef45761020f565b80638da5cb5b116100e75780638da5cb5b14610ac957806395d89b4114610b0a578063a22cb46514610b9a578063b33a420614610bf7578063b66a0e5d14610c875761020f565b8063715018a6146109d757806375e94559146109ee5780638462151c14610a19578063853828b614610abf5761020f565b806323b872dd1161019b57806355f804b31161016a57806355f804b31461079e5780636352211e1461086657806366b9f0d2146108cb5780636c0360eb146108e257806370a08231146109725761020f565b806323b872dd146105ea5780632f745c591461066557806342842e0e146106d45780634f6ccce71461074f5761020f565b80630fba8288116101e25780630fba8288146103d4578063109695231461040257806318160ddd146104ca5780631c8b232d146104f55780631eb5ef5d146105225761020f565b806301ffc9a71461021457806306fdde0314610284578063081812fc14610314578063095ea7b314610379575b600080fd5b34801561022057600080fd5b5061026c6004803603602081101561023757600080fd5b8101908080357bffffffffffffffffffffffffffffffffffffffffffffffffffffffff191690602001909291905050506110cc565b60405180821515815260200191505060405180910390f35b34801561029057600080fd5b50610299611133565b6040518080602001828103825283818151815260200191508051906020019080838360005b838110156102d95780820151818401526020810190506102be565b50505050905090810190601f1680156103065780820380516001836020036101000a031916815260200191505b509250505060405180910390f35b34801561032057600080fd5b5061034d6004803603602081101561033757600080fd5b81019080803590602001909291905050506111d5565b604051808273ffffffffffffffffffffffffffffffffffffffff16815260200191505060405180910390f35b34801561038557600080fd5b506103d26004803603604081101561039c57600080fd5b81019080803573ffffffffffffffffffffffffffffffffffffffff16906020019092919080359060200190929190505050611270565b005b610400600480360360208110156103ea57600080fd5b81019080803590602001909291905050506113b4565b005b34801561040e57600080fd5b506104c86004803603602081101561042557600080fd5b810190808035906020019064010000000081111561044257600080fd5b82018360208201111561045457600080fd5b8035906020019184600183028401116401000000008311171561047657600080fd5b91908080601f016020809104026020016040519081016040528093929190818152602001838380828437600081840152601f19601f8201169050808301925050505050505091929192905050506115e1565b005b3480156104d657600080fd5b506104df6116aa565b6040518082815260200191505060405180910390f35b34801561050157600080fd5b5061050a6116bb565b60405180821515815260200191505060405180910390f35b34801561052e57600080fd5b506105e86004803603602081101561054557600080fd5b810190808035906020019064010000000081111561056257600080fd5b82018360208201111561057457600080fd5b8035906020019184600183028401116401000000008311171561059657600080fd5b91908080601f016020809104026020016040519081016040528093929190818152602001838380828437600081840152601f19601f8201169050808301925050505050505091929192905050506116ce565b005b3480156105f657600080fd5b506106636004803603606081101561060d57600080fd5b81019080803573ffffffffffffffffffffffffffffffffffffffff169060200190929190803573ffffffffffffffffffffffffffffffffffffffff16906020019092919080359060200190929190505050611797565b005b34801561067157600080fd5b506106be6004803603604081101561068857600080fd5b81019080803573ffffffffffffffffffffffffffffffffffffffff1690602001909291908035906020019092919050505061180d565b6040518082815260200191505060405180910390f35b3480156106e057600080fd5b5061074d600480360360608110156106f757600080fd5b81019080803573ffffffffffffffffffffffffffffffffffffffff169060200190929190803573ffffffffffffffffffffffffffffffffffffffff16906020019092919080359060200190929190505050611868565b005b34801561075b57600080fd5b506107886004803603602081101561077257600080fd5b8101908080359060200190929190505050611888565b6040518082815260200191505060405180910390f35b3480156107aa57600080fd5b50610864600480360360208110156107c157600080fd5b81019080803590602001906401000000008111156107de57600080fd5b8201836020820111156107f057600080fd5b8035906020019184600183028401116401000000008311171561081257600080fd5b91908080601f016020809104026020016040519081016040528093929190818152602001838380828437600081840152601f19601f8201169050808301925050505050505091929192905050506118ab565b005b34801561087257600080fd5b5061089f6004803603602081101561088957600080fd5b8101908080359060200190929190505050611966565b604051808273ffffffffffffffffffffffffffffffffffffffff16815260200191505060405180910390f35b3480156108d757600080fd5b506108e061199d565b005b3480156108ee57600080fd5b506108f7611a7d565b6040518080602001828103825283818151815260200191508051906020019080838360005b8381101561093757808201518184015260208101905061091c565b50505050905090810190601f1680156109645780820380516001836020036101000a031916815260200191505b509250505060405180910390f35b34801561097e57600080fd5b506109c16004803603602081101561099557600080fd5b81019080803573ffffffffffffffffffffffffffffffffffffffff169060200190929190505050611b1f565b6040518082815260200191505060405180910390f35b3480156109e357600080fd5b506109ec611bf4565b005b3480156109fa57600080fd5b50610a03611d64565b6040518082815260200191505060405180910390f35b348015610a2557600080fd5b50610a6860048036036020811015610a3c57600080fd5b81019080803573ffffffffffffffffffffffffffffffffffffffff169060200190929190505050611d6a565b6040518080602001828103825283818151815260200191508051906020019060200280838360005b83811015610aab578082015181840152602081019050610a90565b505050509050019250505060405180910390f35b610ac7611e63565b005b348015610ad557600080fd5b50610ade611f52565b604051808273ffffffffffffffffffffffffffffffffffffffff16815260200191505060405180910390f35b348015610b1657600080fd5b50610b1f611f7c565b6040518080602001828103825283818151815260200191508051906020019080838360005b83811015610b5f578082015181840152602081019050610b44565b50505050905090810190601f168015610b8c5780820380516001836020036101000a031916815260200191505b509250505060405180910390f35b348015610ba657600080fd5b50610bf560048036036040811015610bbd57600080fd5b81019080803573ffffffffffffffffffffffffffffffffffffffff16906020019092919080351515906020019092919050505061201e565b005b348015610c0357600080fd5b50610c0c6121d4565b6040518080602001828103825283818151815260200191508051906020019080838360005b83811015610c4c578082015181840152602081019050610c31565b50505050905090810190601f168015610c795780820380516001836020036101000a031916815260200191505b509250505060405180910390f35b348015610c9357600080fd5b50610c9c612272565b005b348015610caa57600080fd5b50610dae60048036036080811015610cc157600080fd5b81019080803573ffffffffffffffffffffffffffffffffffffffff169060200190929190803573ffffffffffffffffffffffffffffffffffffffff1690602001909291908035906020019092919080359060200190640100000000811115610d2857600080fd5b820183602082011115610d3a57600080fd5b80359060200191846001830284011164010000000083111715610d5c57600080fd5b91908080601f016020809104026020016040519081016040528093929190818152602001838380828437600081840152601f19601f82011690508083019250505050505050919291929050505061233e565b005b348015610dbc57600080fd5b50610de960048036036020811015610dd357600080fd5b81019080803590602001909291905050506123b6565b6040518080602001828103825283818151815260200191508051906020019080838360005b83811015610e29578082015181840152602081019050610e0e565b50505050905090810190601f168015610e565780820380516001836020036101000a031916815260200191505b509250505060405180910390f35b348015610e7057600080fd5b50610e79612687565b6040518080602001828103825283818151815260200191508051906020019080838360005b83811015610eb9578082015181840152602081019050610e9e565b50505050905090810190601f168015610ee65780820380516001836020036101000a031916815260200191505b509250505060405180910390f35b610f2060048036036020811015610f0a57600080fd5b8101908080359060200190929190505050612725565b005b348015610f2e57600080fd5b50610f37612815565b6040518082815260200191505060405180910390f35b348015610f5957600080fd5b50610f626129ec565b005b348015610f7057600080fd5b50610fd360048036036040811015610f8757600080fd5b81019080803573ffffffffffffffffffffffffffffffffffffffff169060200190929190803573ffffffffffffffffffffffffffffffffffffffff169060200190929190505050612ab8565b60405180821515815260200191505060405180910390f35b348015610ff757600080fd5b5061103a6004803603602081101561100e57600080fd5b81019080803573ffffffffffffffffffffffffffffffffffffffff169060200190929190505050612b4c565b005b34801561104857600080fd5b50611051612d41565b6040518080602001828103825283818151815260200191508051906020019080838360005b83811015611091578082015181840152602081019050611076565b50505050905090810190601f1680156110be5780820380516001836020036101000a031916815260200191505b509250505060405180910390f35b6000806000837bffffffffffffffffffffffffffffffffffffffffffffffffffffffff19167bffffffffffffffffffffffffffffffffffffffffffffffffffffffff1916815260200190815260200160002060009054906101000a900460ff169050919050565b606060068054600181600116156101000203166002900480601f0160208091040260200160405190810160405280929190818152602001828054600181600116156101000203166002900480156111cb5780601f106111a0576101008083540402835291602001916111cb565b820191906000526020600020905b8154815290600101906020018083116111ae57829003601f168201915b5050505050905090565b60006111e082612ddf565b611235576040517f08c379a000000000000000000000000000000000000000000000000000000000815260040180806020018281038252602c8152602001806144cb602c913960400191505060405180910390fd5b6004600083815260200190815260200160002060009054906101000a900473ffffffffffffffffffffffffffffffffffffffff169050919050565b600061127b82611966565b90508073ffffffffffffffffffffffffffffffffffffffff168373ffffffffffffffffffffffffffffffffffffffff161415611302576040517f08c379a000000000000000000000000000000000000000000000000000000000815260040180806020018281038252602181526020018061454f6021913960400191505060405180910390fd5b8073ffffffffffffffffffffffffffffffffffffffff16611321612dfc565b73ffffffffffffffffffffffffffffffffffffffff161480611350575061134f8161134a612dfc565b612ab8565b5b6113a5576040517f08c379a00000000000000000000000000000000000000000000000000000000081526004018080602001828103825260388152602001806143b26038913960400191505060405180910390fd5b6113af8383612e04565b505050565b6103206113bf6116aa565b10611432576040517f08c379a000000000000000000000000000000000000000000000000000000000815260040180806020018281038252600e8152602001807f53616c652068617320656e64656400000000000000000000000000000000000081525060200191505060405180910390fd5b600081118015611443575060c88111155b611498576040517f08c379a000000000000000000000000000000000000000000000000000000000815260040180806020018281038252602881526020018061443d6028913960400191505060405180910390fd5b6103206114b5826114a76116aa565b612ebd90919063ffffffff16565b1115611529576040517f08c379a00000000000000000000000000000000000000000000000000000000081526004018080602001828103825260108152602001807f45786365656473204d41585f414e46540000000000000000000000000000000081525060200191505060405180910390fd5b61154381611535612815565b612f4590919063ffffffff16565b34101561159b576040517f08c379a00000000000000000000000000000000000000000000000000000000081526004018080602001828103825260238152602001806144656023913960400191505060405180910390fd5b60005b818110156115dd5760006115c360016115b56116aa565b612ebd90919063ffffffff16565b90506115cf3382612fcb565b50808060010191505061159e565b5050565b6115e9612dfc565b73ffffffffffffffffffffffffffffffffffffffff16611607611f52565b73ffffffffffffffffffffffffffffffffffffffff1614611690576040517f08c379a00000000000000000000000000000000000000000000000000000000081526004018080602001828103825260208152602001807f4f776e61626c653a2063616c6c6572206973206e6f7420746865206f776e657281525060200191505060405180910390fd5b80600c90805190602001906116a69291906141d6565b5050565b60006116b66002612fe9565b905090565b600a60149054906101000a900460ff1681565b6116d6612dfc565b73ffffffffffffffffffffffffffffffffffffffff166116f4611f52565b73ffffffffffffffffffffffffffffffffffffffff161461177d576040517f08c379a00000000000000000000000000000000000000000000000000000000081526004018080602001828103825260208152602001807f4f776e61626c653a2063616c6c6572206973206e6f7420746865206f776e657281525060200191505060405180910390fd5b80600d90805190602001906117939291906141d6565b5050565b6117a86117a2612dfc565b82612ffe565b6117fd576040517f08c379a00000000000000000000000000000000000000000000000000000000081526004018080602001828103825260318152602001806145706031913960400191505060405180910390fd5b6118088383836130f2565b505050565b600061186082600160008673ffffffffffffffffffffffffffffffffffffffff1673ffffffffffffffffffffffffffffffffffffffff16815260200190815260200160002061333590919063ffffffff16565b905092915050565b6118838383836040518060200160405280600081525061233e565b505050565b60008061189f83600261334f90919063ffffffff16565b50905080915050919050565b6118b3612dfc565b73ffffffffffffffffffffffffffffffffffffffff166118d1611f52565b73ffffffffffffffffffffffffffffffffffffffff161461195a576040517f08c379a00000000000000000000000000000000000000000000000000000000081526004018080602001828103825260208152602001807f4f776e61626c653a2063616c6c6572206973206e6f7420746865206f776e657281525060200191505060405180910390fd5b6119638161337b565b50565b6000611996826040518060600160405280602981526020016144146029913960026133959092919063ffffffff16565b9050919050565b6119a5612dfc565b73ffffffffffffffffffffffffffffffffffffffff166119c3611f52565b73ffffffffffffffffffffffffffffffffffffffff1614611a4c576040517f08c379a00000000000000000000000000000000000000000000000000000000081526004018080602001828103825260208152602001807f4f776e61626c653a2063616c6c6572206973206e6f7420746865206f776e657281525060200191505060405180910390fd5b6040518060800160405280604e81526020016142ee604e9139600d9080519060200190611a7a9291906141d6565b50565b606060098054600181600116156101000203166002900480601f016020809104026020016040519081016040528092919081815260200182805460018160011615610100020316600290048015611b155780601f10611aea57610100808354040283529160200191611b15565b820191906000526020600020905b815481529060010190602001808311611af857829003601f168201915b5050505050905090565b60008073ffffffffffffffffffffffffffffffffffffffff168273ffffffffffffffffffffffffffffffffffffffff161415611ba6576040517f08c379a000000000000000000000000000000000000000000000000000000000815260040180806020018281038252602a8152602001806143ea602a913960400191505060405180910390fd5b611bed600160008473ffffffffffffffffffffffffffffffffffffffff1673ffffffffffffffffffffffffffffffffffffffff1681526020019081526020016000206133b4565b9050919050565b611bfc612dfc565b73ffffffffffffffffffffffffffffffffffffffff16611c1a611f52565b73ffffffffffffffffffffffffffffffffffffffff1614611ca3576040517f08c379a00000000000000000000000000000000000000000000000000000000081526004018080602001828103825260208152602001807f4f776e61626c653a2063616c6c6572206973206e6f7420746865206f776e657281525060200191505060405180910390fd5b600073ffffffffffffffffffffffffffffffffffffffff16600a60009054906101000a900473ffffffffffffffffffffffffffffffffffffffff1673ffffffffffffffffffffffffffffffffffffffff167f8be0079c531659141344cd1fd0a4f28419497f9722a3daafe3b4186f6b6457e060405160405180910390a36000600a60006101000a81548173ffffffffffffffffffffffffffffffffffffffff021916908373ffffffffffffffffffffffffffffffffffffffff160217905550565b61032081565b60606000611d7783611b1f565b90506000811415611dd257600067ffffffffffffffff81118015611d9a57600080fd5b50604051908082528060200260200182016040528015611dc95781602001602082028036833780820191505090505b50915050611e5e565b60608167ffffffffffffffff81118015611deb57600080fd5b50604051908082528060200260200182016040528015611e1a5781602001602082028036833780820191505090505b50905060005b82811015611e5757611e32858261180d565b828281518110611e3e57fe5b6020026020010181815250508080600101915050611e20565b8193505050505b919050565b611e6b612dfc565b73ffffffffffffffffffffffffffffffffffffffff16611e89611f52565b73ffffffffffffffffffffffffffffffffffffffff1614611f12576040517f08c379a00000000000000000000000000000000000000000000000000000000081526004018080602001828103825260208152602001807f4f776e61626c653a2063616c6c6572206973206e6f7420746865206f776e657281525060200191505060405180910390fd5b3373ffffffffffffffffffffffffffffffffffffffff166108fc479081150290604051600060405180830381858888f19350505050611f5057600080fd5b565b6000600a60009054906101000a900473ffffffffffffffffffffffffffffffffffffffff16905090565b606060078054600181600116156101000203166002900480601f0160208091040260200160405190810160405280929190818152602001828054600181600116156101000203166002900480156120145780601f10611fe957610100808354040283529160200191612014565b820191906000526020600020905b815481529060010190602001808311611ff757829003601f168201915b5050505050905090565b612026612dfc565b73ffffffffffffffffffffffffffffffffffffffff168273ffffffffffffffffffffffffffffffffffffffff1614156120c7576040517f08c379a00000000000000000000000000000000000000000000000000000000081526004018080602001828103825260198152602001807f4552433732313a20617070726f766520746f2063616c6c65720000000000000081525060200191505060405180910390fd5b80600560006120d4612dfc565b73ffffffffffffffffffffffffffffffffffffffff1673ffffffffffffffffffffffffffffffffffffffff16815260200190815260200160002060008473ffffffffffffffffffffffffffffffffffffffff1673ffffffffffffffffffffffffffffffffffffffff16815260200190815260200160002060006101000a81548160ff0219169083151502179055508173ffffffffffffffffffffffffffffffffffffffff16612181612dfc565b73ffffffffffffffffffffffffffffffffffffffff167f17307eab39ab6107e8899845ad3d59bd9653f200f220920489ca2b5937696c318360405180821515815260200191505060405180910390a35050565b600d8054600181600116156101000203166002900480601f01602080910402602001604051908101604052809291908181526020018280546001816001161561010002031660029004801561226a5780601f1061223f5761010080835404028352916020019161226a565b820191906000526020600020905b81548152906001019060200180831161224d57829003601f168201915b505050505081565b61227a612dfc565b73ffffffffffffffffffffffffffffffffffffffff16612298611f52565b73ffffffffffffffffffffffffffffffffffffffff1614612321576040517f08c379a00000000000000000000000000000000000000000000000000000000081526004018080602001828103825260208152602001807f4f776e61626c653a2063616c6c6572206973206e6f7420746865206f776e657281525060200191505060405180910390fd5b6001600a60146101000a81548160ff021916908315150217905550565b61234f612349612dfc565b83612ffe565b6123a4576040517f08c379a00000000000000000000000000000000000000000000000000000000081526004018080602001828103825260318152602001806145706031913960400191505060405180910390fd5b6123b0848484846133c9565b50505050565b60606123c182612ddf565b612416576040517f08c379a000000000000000000000000000000000000000000000000000000000815260040180806020018281038252602f815260200180614520602f913960400191505060405180910390fd5b6060600860008481526020019081526020016000208054600181600116156101000203166002900480601f0160208091040260200160405190810160405280929190818152602001828054600181600116156101000203166002900480156124bf5780601f10612494576101008083540402835291602001916124bf565b820191906000526020600020905b8154815290600101906020018083116124a257829003601f168201915b5050505050905060606124d0611a7d565b90506000815114156124e6578192505050612682565b6000825111156125b75780826040516020018083805190602001908083835b602083106125285780518252602082019150602081019050602083039250612505565b6001836020036101000a03801982511681845116808217855250505050505090500182805190602001908083835b602083106125795780518252602082019150602081019050602083039250612556565b6001836020036101000a0380198251168184511680821785525050505050509050019250505060405160208183030381529060405292505050612682565b806125c18561343b565b6040516020018083805190602001908083835b602083106125f757805182526020820191506020810190506020830392506125d4565b6001836020036101000a03801982511681845116808217855250505050505090500182805190602001908083835b602083106126485780518252602082019150602081019050602083039250612625565b6001836020036101000a03801982511681845116808217855250505050505090500192505050604051602081830303815290604052925050505b919050565b600b8054600181600116156101000203166002900480601f01602080910402602001604051908101604052809291908181526020018280546001816001161561010002031660029004801561271d5780601f106126f25761010080835404028352916020019161271d565b820191906000526020600020905b81548152906001019060200180831161270057829003601f168201915b505050505081565b61272d612dfc565b73ffffffffffffffffffffffffffffffffffffffff1661274b611f52565b73ffffffffffffffffffffffffffffffffffffffff16146127d4576040517f08c379a00000000000000000000000000000000000000000000000000000000081526004018080602001828103825260208152602001807f4f776e61626c653a2063616c6c6572206973206e6f7420746865206f776e657281525060200191505060405180910390fd5b3373ffffffffffffffffffffffffffffffffffffffff166108fc829081150290604051600060405180830381858888f1935050505061281257600080fd5b50565b600060011515600a60149054906101000a900460ff161515146128a0576040517f08c379a00000000000000000000000000000000000000000000000000000000081526004018080602001828103825260118152602001807f53616c6573206e6f74207374617274656400000000000000000000000000000081525060200191505060405180910390fd5b6103206128ab6116aa565b1061291e576040517f08c379a000000000000000000000000000000000000000000000000000000000815260040180806020018281038252600e8152602001807f53616c652068617320656e64656400000000000000000000000000000000000081525060200191505060405180910390fd5b60006129286116aa565b9050610316811061294457670b1a2bc2ec5000009150506129e9565b6102ee811061295e57670853a0d2313c00009150506129e9565b61028a81106129785767063eb89da4ed00009150506129e9565b6101f4811061299257670429d069189e00009150506129e9565b61012c81106129ac576702386f26fc1000009150506129e9565b609681106129c55767011c37937e0800009150506129e9565b603281106129dd57668e1bc9bf0400009150506129e9565b66470de4df8200009150505b90565b6129f4612dfc565b73ffffffffffffffffffffffffffffffffffffffff16612a12611f52565b73ffffffffffffffffffffffffffffffffffffffff1614612a9b576040517f08c379a00000000000000000000000000000000000000000000000000000000081526004018080602001828103825260208152602001807f4f776e61626c653a2063616c6c6572206973206e6f7420746865206f776e657281525060200191505060405180910390fd5b6000600a60146101000a81548160ff021916908315150217905550565b6000600560008473ffffffffffffffffffffffffffffffffffffffff1673ffffffffffffffffffffffffffffffffffffffff16815260200190815260200160002060008373ffffffffffffffffffffffffffffffffffffffff1673ffffffffffffffffffffffffffffffffffffffff16815260200190815260200160002060009054906101000a900460ff16905092915050565b612b54612dfc565b73ffffffffffffffffffffffffffffffffffffffff16612b72611f52565b73ffffffffffffffffffffffffffffffffffffffff1614612bfb576040517f08c379a00000000000000000000000000000000000000000000000000000000081526004018080602001828103825260208152602001807f4f776e61626c653a2063616c6c6572206973206e6f7420746865206f776e657281525060200191505060405180910390fd5b600073ffffffffffffffffffffffffffffffffffffffff168173ffffffffffffffffffffffffffffffffffffffff161415612c81576040517f08c379a00000000000000000000000000000000000000000000000000000000081526004018080602001828103825260268152602001806142c86026913960400191505060405180910390fd5b8073ffffffffffffffffffffffffffffffffffffffff16600a60009054906101000a900473ffffffffffffffffffffffffffffffffffffffff1673ffffffffffffffffffffffffffffffffffffffff167f8be0079c531659141344cd1fd0a4f28419497f9722a3daafe3b4186f6b6457e060405160405180910390a380600a60006101000a81548173ffffffffffffffffffffffffffffffffffffffff021916908373ffffffffffffffffffffffffffffffffffffffff16021790555050565b600c8054600181600116156101000203166002900480601f016020809104026020016040519081016040528092919081815260200182805460018160011615610100020316600290048015612dd75780601f10612dac57610100808354040283529160200191612dd7565b820191906000526020600020905b815481529060010190602001808311612dba57829003601f168201915b505050505081565b6000612df582600261358290919063ffffffff16565b9050919050565b600033905090565b816004600083815260200190815260200160002060006101000a81548173ffffffffffffffffffffffffffffffffffffffff021916908373ffffffffffffffffffffffffffffffffffffffff160217905550808273ffffffffffffffffffffffffffffffffffffffff16612e7783611966565b73ffffffffffffffffffffffffffffffffffffffff167f8c5be1e5ebec7d5bd14f71427d1e84f3dd0314c0f7b2291e5b200ac8c7c3b92560405160405180910390a45050565b600080828401905083811015612f3b576040517f08c379a000000000000000000000000000000000000000000000000000000000815260040180806020018281038252601b8152602001807f536166654d6174683a206164646974696f6e206f766572666c6f77000000000081525060200191505060405180910390fd5b8091505092915050565b600080831415612f585760009050612fc5565b6000828402905082848281612f6957fe5b0414612fc0576040517f08c379a00000000000000000000000000000000000000000000000000000000081526004018080602001828103825260218152602001806144aa6021913960400191505060405180910390fd5b809150505b92915050565b612fe582826040518060200160405280600081525061359c565b5050565b6000612ff78260000161360d565b9050919050565b600061300982612ddf565b61305e576040517f08c379a000000000000000000000000000000000000000000000000000000000815260040180806020018281038252602c815260200180614386602c913960400191505060405180910390fd5b600061306983611966565b90508073ffffffffffffffffffffffffffffffffffffffff168473ffffffffffffffffffffffffffffffffffffffff1614806130d857508373ffffffffffffffffffffffffffffffffffffffff166130c0846111d5565b73ffffffffffffffffffffffffffffffffffffffff16145b806130e957506130e88185612ab8565b5b91505092915050565b8273ffffffffffffffffffffffffffffffffffffffff1661311282611966565b73ffffffffffffffffffffffffffffffffffffffff161461317e576040517f08c379a00000000000000000000000000000000000000000000000000000000081526004018080602001828103825260298152602001806144f76029913960400191505060405180910390fd5b600073ffffffffffffffffffffffffffffffffffffffff168273ffffffffffffffffffffffffffffffffffffffff161415613204576040517f08c379a000000000000000000000000000000000000000000000000000000000815260040180806020018281038252602481526020018061433c6024913960400191505060405180910390fd5b61320f83838361361e565b61321a600082612e04565b61326b81600160008673ffffffffffffffffffffffffffffffffffffffff1673ffffffffffffffffffffffffffffffffffffffff16815260200190815260200160002061362390919063ffffffff16565b506132bd81600160008573ffffffffffffffffffffffffffffffffffffffff1673ffffffffffffffffffffffffffffffffffffffff16815260200190815260200160002061363d90919063ffffffff16565b506132d4818360026136579092919063ffffffff16565b50808273ffffffffffffffffffffffffffffffffffffffff168473ffffffffffffffffffffffffffffffffffffffff167fddf252ad1be2c89b69c2b068fc378daa952ba7f163c4a11628f55a4df523b3ef60405160405180910390a4505050565b6000613344836000018361368c565b60001c905092915050565b600080600080613362866000018661370f565b915091508160001c8160001c9350935050509250929050565b80600990805190602001906133919291906141d6565b5050565b60006133a8846000018460001b846137a8565b60001c90509392505050565b60006133c28260000161389e565b9050919050565b6133d48484846130f2565b6133e0848484846138af565b613435576040517f08c379a00000000000000000000000000000000000000000000000000000000081526004018080602001828103825260328152602001806142966032913960400191505060405180910390fd5b50505050565b60606000821415613483576040518060400160405280600181526020017f3000000000000000000000000000000000000000000000000000000000000000815250905061357d565b600082905060005b600082146134ad578080600101915050600a82816134a557fe5b04915061348b565b60608167ffffffffffffffff811180156134c657600080fd5b506040519080825280601f01601f1916602001820160405280156134f95781602001600182028036833780820191505090505b50905060006001830390508593505b6000841461357557600a848161351a57fe5b0660300160f81b8282806001900393508151811061353457fe5b60200101907effffffffffffffffffffffffffffffffffffffffffffffffffffffffffffff1916908160001a905350600a848161356d57fe5b049350613508565b819450505050505b919050565b6000613594836000018360001b613ac8565b905092915050565b6135a68383613aeb565b6135b360008484846138af565b613608576040517f08c379a00000000000000000000000000000000000000000000000000000000081526004018080602001828103825260328152602001806142966032913960400191505060405180910390fd5b505050565b600081600001805490509050919050565b505050565b6000613635836000018360001b613cdf565b905092915050565b600061364f836000018360001b613dc7565b905092915050565b6000613683846000018460001b8473ffffffffffffffffffffffffffffffffffffffff1660001b613e37565b90509392505050565b6000818360000180549050116136ed576040517f08c379a00000000000000000000000000000000000000000000000000000000081526004018080602001828103825260228152602001806142746022913960400191505060405180910390fd5b8260000182815481106136fc57fe5b9060005260206000200154905092915050565b60008082846000018054905011613771576040517f08c379a00000000000000000000000000000000000000000000000000000000081526004018080602001828103825260228152602001806144886022913960400191505060405180910390fd5b600084600001848154811061378257fe5b906000526020600020906002020190508060000154816001015492509250509250929050565b6000808460010160008581526020019081526020016000205490506000811415839061386f576040517f08c379a00000000000000000000000000000000000000000000000000000000081526004018080602001828103825283818151815260200191508051906020019080838360005b83811015613834578082015181840152602081019050613819565b50505050905090810190601f1680156138615780820380516001836020036101000a031916815260200191505b509250505060405180910390fd5b5084600001600182038154811061388257fe5b9060005260206000209060020201600101549150509392505050565b600081600001805490509050919050565b60006138d08473ffffffffffffffffffffffffffffffffffffffff16613f13565b6138dd5760019050613ac0565b6060613a4763150b7a0260e01b6138f2612dfc565b888787604051602401808573ffffffffffffffffffffffffffffffffffffffff1681526020018473ffffffffffffffffffffffffffffffffffffffff16815260200183815260200180602001828103825283818151815260200191508051906020019080838360005b8381101561397657808201518184015260208101905061395b565b50505050905090810190601f1680156139a35780820380516001836020036101000a031916815260200191505b5095505050505050604051602081830303815290604052907bffffffffffffffffffffffffffffffffffffffffffffffffffffffff19166020820180517bffffffffffffffffffffffffffffffffffffffffffffffffffffffff8381831617835250505050604051806060016040528060328152602001614296603291398773ffffffffffffffffffffffffffffffffffffffff16613f269092919063ffffffff16565b90506000818060200190516020811015613a6057600080fd5b8101908080519060200190929190505050905063150b7a0260e01b7bffffffffffffffffffffffffffffffffffffffffffffffffffffffff1916817bffffffffffffffffffffffffffffffffffffffffffffffffffffffff191614925050505b949350505050565b600080836001016000848152602001908152602001600020541415905092915050565b600073ffffffffffffffffffffffffffffffffffffffff168273ffffffffffffffffffffffffffffffffffffffff161415613b8e576040517f08c379a00000000000000000000000000000000000000000000000000000000081526004018080602001828103825260208152602001807f4552433732313a206d696e7420746f20746865207a65726f206164647265737381525060200191505060405180910390fd5b613b9781612ddf565b15613c0a576040517f08c379a000000000000000000000000000000000000000000000000000000000815260040180806020018281038252601c8152602001807f4552433732313a20746f6b656e20616c7265616479206d696e7465640000000081525060200191505060405180910390fd5b613c166000838361361e565b613c6781600160008573ffffffffffffffffffffffffffffffffffffffff1673ffffffffffffffffffffffffffffffffffffffff16815260200190815260200160002061363d90919063ffffffff16565b50613c7e818360026136579092919063ffffffff16565b50808273ffffffffffffffffffffffffffffffffffffffff16600073ffffffffffffffffffffffffffffffffffffffff167fddf252ad1be2c89b69c2b068fc378daa952ba7f163c4a11628f55a4df523b3ef60405160405180910390a45050565b60008083600101600084815260200190815260200160002054905060008114613dbb5760006001820390506000600186600001805490500390506000866000018281548110613d2a57fe5b9060005260206000200154905080876000018481548110613d4757fe5b9060005260206000200181905550600183018760010160008381526020019081526020016000208190555086600001805480613d7f57fe5b60019003818190600052602060002001600090559055866001016000878152602001908152602001600020600090556001945050505050613dc1565b60009150505b92915050565b6000613dd38383613f3e565b613e2c578260000182908060018154018082558091505060019003906000526020600020016000909190919091505582600001805490508360010160008481526020019081526020016000208190555060019050613e31565b600090505b92915050565b6000808460010160008581526020019081526020016000205490506000811415613ede57846000016040518060400160405280868152602001858152509080600181540180825580915050600190039060005260206000209060020201600090919091909150600082015181600001556020820151816001015550508460000180549050856001016000868152602001908152602001600020819055506001915050613f0c565b82856000016001830381548110613ef157fe5b90600052602060002090600202016001018190555060009150505b9392505050565b600080823b905060008111915050919050565b6060613f358484600085613f61565b90509392505050565b600080836001016000848152602001908152602001600020541415905092915050565b606082471015613fbc576040517f08c379a00000000000000000000000000000000000000000000000000000000081526004018080602001828103825260268152602001806143606026913960400191505060405180910390fd5b613fc585613f13565b614037576040517f08c379a000000000000000000000000000000000000000000000000000000000815260040180806020018281038252601d8152602001807f416464726573733a2063616c6c20746f206e6f6e2d636f6e747261637400000081525060200191505060405180910390fd5b600060608673ffffffffffffffffffffffffffffffffffffffff1685876040518082805190602001908083835b602083106140875780518252602082019150602081019050602083039250614064565b6001836020036101000a03801982511681845116808217855250505050505090500191505060006040518083038185875af1925050503d80600081146140e9576040519150601f19603f3d011682016040523d82523d6000602084013e6140ee565b606091505b50915091506140fe82828661410a565b92505050949350505050565b6060831561411a578290506141cf565b60008351111561412d5782518084602001fd5b816040517f08c379a00000000000000000000000000000000000000000000000000000000081526004018080602001828103825283818151815260200191508051906020019080838360005b83811015614194578082015181840152602081019050614179565b50505050905090810190601f1680156141c15780820380516001836020036101000a031916815260200191505b509250505060405180910390fd5b9392505050565b828054600181600116156101000203166002900490600052602060002090601f016020900481019282601f1061421757805160ff1916838001178555614245565b82800160010185558215614245579182015b82811115614244578251825591602001919060010190614229565b5b5090506142529190614256565b5090565b5b8082111561426f576000816000905550600101614257565b509056fe456e756d657261626c655365743a20696e646578206f7574206f6620626f756e64734552433732313a207472616e7366657220746f206e6f6e20455243373231526563656976657220696d706c656d656e7465724f776e61626c653a206e6577206f776e657220697320746865207a65726f20616464726573735468652054786e2048617368206f6620746869732052657665616c205472616e73616374696f6e2077696c6c2062652073657420696e20612073657065726174652066756374696f6e2063616c6c4552433732313a207472616e7366657220746f20746865207a65726f2061646472657373416464726573733a20696e73756666696369656e742062616c616e636520666f722063616c6c4552433732313a206f70657261746f7220717565727920666f72206e6f6e6578697374656e7420746f6b656e4552433732313a20617070726f76652063616c6c6572206973206e6f74206f776e6572206e6f7220617070726f76656420666f7220616c6c4552433732313a2062616c616e636520717565727920666f7220746865207a65726f20616464726573734552433732313a206f776e657220717565727920666f72206e6f6e6578697374656e7420746f6b656e596f752063616e2061646f7074206d696e696d756d20312c206d6178696d756d20323020416e667445746865722076616c75652073656e742069732062656c6f7720746865207072696365456e756d657261626c654d61703a20696e646578206f7574206f6620626f756e6473536166654d6174683a206d756c7469706c69636174696f6e206f766572666c6f774552433732313a20617070726f76656420717565727920666f72206e6f6e6578697374656e7420746f6b656e4552433732313a207472616e73666572206f6620746f6b656e2074686174206973206e6f74206f776e4552433732314d657461646174613a2055524920717565727920666f72206e6f6e6578697374656e7420746f6b656e4552433732313a20617070726f76616c20746f2063757272656e74206f776e65724552433732313a207472616e736665722063616c6c6572206973206e6f74206f776e6572206e6f7220617070726f766564a26469706673582212205252ea06c9c0fa4900ec6aa3614080b43b2e2d39f3f6d271e537bb60dd62755d64736f6c6343000700003377696c6c2070726f7669646520796f75206265666f726520636f6e7472616374206372656174696f6e",
  "immutableReferences": {},
  "source": "// contracts/ANFT.sol\r\n// SPDX-License-Identifier: MIT\r\n\r\npragma solidity ^0.7.0;\r\n\r\nimport \"./ERC721.sol\";\r\nimport \"./Ownable.sol\";\r\n\r\n\r\npragma solidity ^0.7.0;\r\n\r\nimport \"./ERC721.sol\";\r\nimport \"./Ownable.sol\";\r\n\r\ncontract Anft is ERC721, Ownable {\r\n    using SafeMath for uint256;\r\n    \r\n    bool public hasSaleStarted = false;\r\n    \r\n    // Max supply of 8000 Anft\r\n    uint public constant MAX_ANFT = 800;\r\n    \r\n    // Before Reveal SHA256 hash of file containing 8000 Anft Artwork file hashes\r\n    string public ORGINAL_FILE_HASH = \"will provide you before contract creation\";\r\n\r\n    // After Reveal - SHA256 hash of file containing 8000 Anft Artwork file hashes\r\n    string public PROVENANCE_HASH = \"\";\r\n\r\n    //\r\n    string public Reveal_Hash = \"\";\r\n    \r\n    constructor(string memory baseURI) ERC721(\"Anft\", \"AMU\")  {\r\n        setBaseURI(baseURI);\r\n    }\r\n  \r\n    function tokensOfOwner(address _owner) external view returns(uint256[] memory ) {\r\n        uint256 tokenCount = balanceOf(_owner);\r\n        if (tokenCount == 0) {\r\n            return new uint256[](0);\r\n        } else {\r\n            uint256[] memory result = new uint256[](tokenCount);\r\n            uint256 index;\r\n            for (index = 0; index < tokenCount; index++) {\r\n                result[index] = tokenOfOwnerByIndex(_owner, index);\r\n            }\r\n            return result;\r\n        }\r\n    }\r\n    \r\n    function calculatePrice() public view returns (uint256) {\r\n        require(hasSaleStarted == true, \"Sales not started\");\r\n        require(totalSupply() < MAX_ANFT, \"Sale has ended\");\r\n\r\n        uint currentSupply = totalSupply();\r\n        if (currentSupply >= 790) {\r\n            return 0.80 ether;        // Tier 8 -- 7901-8000: 0.80 ETH \r\n        } else if (currentSupply >= 750) {\r\n            return 0.60 ether;        // Tier 7 -- 7501-7900: 0.60 ETH\r\n        } else if (currentSupply >= 650) {\r\n            return 0.45 ether;        // Tier 6 -- 6501-7500: 0.45 ETH\r\n        } else if (currentSupply >= 500) {\r\n            return 0.30 ether;        // Tier 5 -- 5001-6500: 0.30 ETH\r\n        } else if (currentSupply >= 300) {\r\n            return 0.16 ether;        // Tier 4 -- 3001-5000: 0.16 ETH \r\n        } else if (currentSupply >= 150) {\r\n            return 0.08 ether;         // Tier 3 -- 1501-3000: 0.08 ETH \r\n        } else if (currentSupply >= 50) {\r\n            return 0.04 ether;         // Tier 2 -- 501-1500:  0.04 ETH\r\n        } else {\r\n            return 0.02 ether;         // Tier 3 -- 1-500:     0.02 ETH\r\n        }\r\n    }\r\n\r\n   function adoptANFT(uint256 numofANFT) public payable {\r\n        require(totalSupply() < MAX_ANFT, \"Sale has ended\");\r\n        require(numofANFT > 0 && numofANFT <= 200, \"You can adopt minimum 1, maximum 20 Anft\");\r\n        require(totalSupply().add(numofANFT) <= MAX_ANFT, \"Exceeds MAX_ANFT\");\r\n        require(msg.value >= calculatePrice().mul(numofANFT), \"Ether value sent is below the price\");\r\n\r\n        for (uint i = 0; i < numofANFT; i++) {\r\n            uint mintIndex = totalSupply().add(1);\r\n            _safeMint(msg.sender, mintIndex);\r\n        }\r\n    }\r\n    \r\n    // onlyOwner functions below\r\n    function setProvenanceHash(string memory _hash) public onlyOwner {\r\n        PROVENANCE_HASH = _hash;\r\n    }\r\n    \r\n    // Call Reveal to get Txn Hash for distributing artworks - how to read current block number\r\n    function Reveal() public onlyOwner {\r\n        Reveal_Hash = \"The Txn Hash of this Reveal Transaction will be set in a seperate fuction call\";\r\n    }\r\n    \r\n    function setReveal(string memory hash) public onlyOwner {\r\n        Reveal_Hash = hash;\r\n    }\r\n\r\n    function setBaseURI(string memory baseURI) public onlyOwner {\r\n        _setBaseURI(baseURI);\r\n    }\r\n    \r\n    function startSale() public onlyOwner {\r\n        hasSaleStarted = true;\r\n    }\r\n    function stopSale() public onlyOwner {\r\n        hasSaleStarted = false;\r\n    }\r\n    \r\n    function withdrawAll() public payable onlyOwner {\r\n        require(payable(msg.sender).send(address(this).balance));\r\n    }\r\n    \r\n    function withdrawAmt(uint256 amount) public payable onlyOwner {\r\n        require(payable(msg.sender).send(amount));\r\n    }\r\n  \r\n}\r\n",
  "sourcePath": "C:/Users/Huawe/nft/src/contracts/Anft.sol",
  "compiler": {
    "name": "solc",
    "version": "0.7.0+commit.9e61f92b.Emscripten.clang"
  },
  "schemaVersion": "3.4.1",
  "updatedAt": "2021-05-11T07:07:25.521Z",
  "networkType": "ethereum",
  "devdoc": {
    "kind": "dev",
    "methods": {
      "approve(address,uint256)": {
        "details": "See {IERC721-approve}."
      },
      "balanceOf(address)": {
        "details": "See {IERC721-balanceOf}."
      },
      "baseURI()": {
        "details": "Returns the base URI set via {_setBaseURI}. This will be automatically added as a prefix in {tokenURI} to each token's URI, or to the token ID if no specific URI is set for that token ID."
      },
      "getApproved(uint256)": {
        "details": "See {IERC721-getApproved}."
      },
      "isApprovedForAll(address,address)": {
        "details": "See {IERC721-isApprovedForAll}."
      },
      "name()": {
        "details": "See {IERC721Metadata-name}."
      },
      "owner()": {
        "details": "Returns the address of the current owner."
      },
      "ownerOf(uint256)": {
        "details": "See {IERC721-ownerOf}."
      },
      "renounceOwnership()": {
        "details": "Leaves the contract without owner. It will not be possible to call `onlyOwner` functions anymore. Can only be called by the current owner. NOTE: Renouncing ownership will leave the contract without an owner, thereby removing any functionality that is only available to the owner."
      },
      "safeTransferFrom(address,address,uint256)": {
        "details": "See {IERC721-safeTransferFrom}."
      },
      "safeTransferFrom(address,address,uint256,bytes)": {
        "details": "See {IERC721-safeTransferFrom}."
      },
      "setApprovalForAll(address,bool)": {
        "details": "See {IERC721-setApprovalForAll}."
      },
      "supportsInterface(bytes4)": {
        "details": "See {IERC165-supportsInterface}. Time complexity O(1), guaranteed to always use less than 30 000 gas."
      },
      "symbol()": {
        "details": "See {IERC721Metadata-symbol}."
      },
      "tokenByIndex(uint256)": {
        "details": "See {IERC721Enumerable-tokenByIndex}."
      },
      "tokenOfOwnerByIndex(address,uint256)": {
        "details": "See {IERC721Enumerable-tokenOfOwnerByIndex}."
      },
      "tokenURI(uint256)": {
        "details": "See {IERC721Metadata-tokenURI}."
      },
      "totalSupply()": {
        "details": "See {IERC721Enumerable-totalSupply}."
      },
      "transferFrom(address,address,uint256)": {
        "details": "See {IERC721-transferFrom}."
      },
      "transferOwnership(address)": {
        "details": "Transfers ownership of the contract to a new account (`newOwner`). Can only be called by the current owner."
      }
    },
    "version": 1
  },
  "userdoc": {
    "kind": "user",
    "methods": {},
    "version": 1
  }
}